{
  "contractName": "Identities",
  "abi": [
    {
      "anonymous": false,
      "inputs": [
        {
          "indexed": false,
          "name": "name",
          "type": "string"
        },
        {
          "indexed": false,
          "name": "did",
          "type": "string"
        },
        {
          "indexed": false,
          "name": "dappId",
          "type": "string"
        },
        {
          "indexed": false,
          "name": "index",
          "type": "uint256"
        },
        {
          "indexed": false,
          "name": "extraInfo",
          "type": "string"
        },
        {
          "indexed": false,
          "name": "operator",
          "type": "address"
        }
      ],
      "name": "IdentityRegistered",
      "type": "event"
    },
    {
      "constant": false,
      "inputs": [
        {
          "name": "name",
          "type": "string"
        },
        {
          "name": "did",
          "type": "string"
        },
        {
          "name": "dappId",
          "type": "string"
        },
        {
          "name": "index",
          "type": "uint256"
        },
        {
          "name": "extraInfo",
          "type": "string"
        }
      ],
      "name": "registerIdentity",
      "outputs": [],
      "payable": false,
      "stateMutability": "nonpayable",
      "type": "function"
    },
    {
      "constant": true,
      "inputs": [],
      "name": "identityOf",
      "outputs": [
        {
          "name": "",
          "type": "string[]"
        },
        {
          "name": "",
          "type": "string[]"
        },
        {
          "name": "",
          "type": "string[]"
        },
        {
          "name": "",
          "type": "uint256[]"
        },
        {
          "name": "",
          "type": "string[]"
        }
      ],
      "payable": false,
      "stateMutability": "view",
      "type": "function"
    }
  ],
  "bytecode": "0x608060405234801561001057600080fd5b50610d5e806100206000396000f3fe608060405234801561001057600080fd5b5060043610610053576000357c010000000000000000000000000000000000000000000000000000000090048063127d90fd146100585780634c454cdf14610074575b600080fd5b610072600480360361006d9190810190610891565b610096565b005b61007c6101f0565b60405161008d959493929190610abb565b60405180910390f35b6000803373ffffffffffffffffffffffffffffffffffffffff1673ffffffffffffffffffffffffffffffffffffffff16815260200190815260200160002060a06040519081016040528087815260200186815260200185815260200184815260200183815250908060018154018082558091505090600182039060005260206000209060050201600090919290919091506000820151816000019080519060200190610143929190610752565b506020820151816001019080519060200190610160929190610752565b50604082015181600201908051906020019061017d929190610752565b506060820151816003015560808201518160040190805190602001906101a4929190610752565b505050507f5663db8c00cba344b4c581ae72a331d2560ab5f7f25469a6b3c567fc4a7e11ad8585858585336040516101e196959493929190610b31565b60405180910390a15050505050565b6060806060806060806000803373ffffffffffffffffffffffffffffffffffffffff1673ffffffffffffffffffffffffffffffffffffffff168152602001908152602001600020805480602002602001604051908101604052809291908181526020016000905b8282101561051c578382906000526020600020906005020160a06040519081016040529081600082018054600181600116156101000203166002900480601f0160208091040260200160405190810160405280929190818152602001828054600181600116156101000203166002900480156103145780601f106102e957610100808354040283529160200191610314565b820191906000526020600020905b8154815290600101906020018083116102f757829003601f168201915b50505050508152602001600182018054600181600116156101000203166002900480601f0160208091040260200160405190810160405280929190818152602001828054600181600116156101000203166002900480156103b65780601f1061038b576101008083540402835291602001916103b6565b820191906000526020600020905b81548152906001019060200180831161039957829003601f168201915b50505050508152602001600282018054600181600116156101000203166002900480601f0160208091040260200160405190810160405280929190818152602001828054600181600116156101000203166002900480156104585780601f1061042d57610100808354040283529160200191610458565b820191906000526020600020905b81548152906001019060200180831161043b57829003601f168201915b5050505050815260200160038201548152602001600482018054600181600116156101000203166002900480601f0160208091040260200160405190810160405280929190818152602001828054600181600116156101000203166002900480156105045780601f106104d957610100808354040283529160200191610504565b820191906000526020600020905b8154815290600101906020018083116104e757829003601f168201915b50505050508152505081526020019060010190610257565b50505050905060008151905060608160405190808252806020026020018201604052801561055e57816020015b60608152602001906001900390816105495790505b50905060608260405190808252806020026020018201604052801561059757816020015b60608152602001906001900390816105825790505b5090506060836040519080825280602002602001820160405280156105d057816020015b60608152602001906001900390816105bb5790505b5090506060846040519080825280602002602001820160405280156106045781602001602082028038833980820191505090505b50905060608560405190808252806020026020018201604052801561063d57816020015b60608152602001906001900390816106285790505b50905060008090505b868160ff161015610734576106596107d2565b888260ff1681518110151561066a57fe5b9060200190602002015190508060000151878360ff1681518110151561068c57fe5b906020019060200201819052508060200151868360ff168151811015156106af57fe5b906020019060200201819052508060400151858360ff168151811015156106d257fe5b906020019060200201819052508060600151848360ff168151811015156106f557fe5b90602001906020020181815250508060800151838360ff1681518110151561071957fe5b90602001906020020181905250508080600101915050610646565b5084848484849b509b509b509b509b50505050505050509091929394565b828054600181600116156101000203166002900490600052602060002090601f016020900481019282601f1061079357805160ff19168380011785556107c1565b828001600101855582156107c1579182015b828111156107c05782518255916020019190600101906107a5565b5b5090506107ce9190610802565b5090565b60a06040519081016040528060608152602001606081526020016060815260200160008152602001606081525090565b61082491905b80821115610820576000816000905550600101610808565b5090565b90565b600082601f830112151561083a57600080fd5b813561084d61084882610bdb565b610bae565b9150808252602083016020830185838301111561086957600080fd5b610874838284610cd1565b50505092915050565b60006108898235610c91565b905092915050565b600080600080600060a086880312156108a957600080fd5b600086013567ffffffffffffffff8111156108c357600080fd5b6108cf88828901610827565b955050602086013567ffffffffffffffff8111156108ec57600080fd5b6108f888828901610827565b945050604086013567ffffffffffffffff81111561091557600080fd5b61092188828901610827565b93505060606109328882890161087d565b925050608086013567ffffffffffffffff81111561094f57600080fd5b61095b88828901610827565b9150509295509295909350565b61097181610c9b565b82525050565b600061098282610c21565b8084526020840193508360208202850161099b85610c07565b60005b848110156109d45783830388526109b6838351610a76565b92506109c182610c4d565b915060208801975060018101905061099e565b508196508694505050505092915050565b60006109f082610c2c565b808452602084019350610a0283610c14565b60005b82811015610a3457610a18868351610aac565b610a2182610c5a565b9150602086019550600181019050610a05565b50849250505092915050565b6000610a4b82610c42565b808452610a5f816020860160208601610ce0565b610a6881610d13565b602085010191505092915050565b6000610a8182610c37565b808452610a95816020860160208601610ce0565b610a9e81610d13565b602085010191505092915050565b610ab581610c87565b82525050565b600060a0820190508181036000830152610ad58188610977565b90508181036020830152610ae98187610977565b90508181036040830152610afd8186610977565b90508181036060830152610b1181856109e5565b90508181036080830152610b258184610977565b90509695505050505050565b600060c0820190508181036000830152610b4b8189610a40565b90508181036020830152610b5f8188610a40565b90508181036040830152610b738187610a40565b9050610b826060830186610aac565b8181036080830152610b948185610a40565b9050610ba360a0830184610968565b979650505050505050565b6000604051905081810181811067ffffffffffffffff82111715610bd157600080fd5b8060405250919050565b600067ffffffffffffffff821115610bf257600080fd5b601f19601f8301169050602081019050919050565b6000602082019050919050565b6000602082019050919050565b600081519050919050565b600081519050919050565b600081519050919050565b600081519050919050565b6000602082019050919050565b6000602082019050919050565b600073ffffffffffffffffffffffffffffffffffffffff82169050919050565b6000819050919050565b6000819050919050565b6000610ca682610cad565b9050919050565b6000610cb882610cbf565b9050919050565b6000610cca82610c67565b9050919050565b82818337600083830152505050565b60005b83811015610cfe578082015181840152602081019050610ce3565b83811115610d0d576000848401525b50505050565b6000601f19601f830116905091905056fea265627a7a72305820fc430209c029593995c0d3f660d7af94156c9a5aa2c32dbd7b59fcc5704c62416c6578706572696d656e74616cf50037",
  "source": "pragma solidity >=0.5.0 <0.7.0;\npragma experimental ABIEncoderV2;\n\ncontract Identities {\n    struct Identity {\n        string name;\n        string did;\n        string dappId;\n        uint256 index;\n        string extraInfo;\n    }\n\n    mapping(address => Identity[]) identities;\n\n    event IdentityRegistered(\n        string name,\n        string did,\n        string dappId,\n        uint256 index,\n        string extraInfo,\n        address operator\n    );\n\n    function registerIdentity(\n        string memory name,\n        string memory did,\n        string memory dappId,\n        uint256 index,\n        string memory extraInfo\n    )\n    public\n    {\n        identities[msg.sender].push(Identity(name, did, dappId, index, extraInfo));\n\n        emit IdentityRegistered(name, did, dappId, index, extraInfo, msg.sender);\n    }\n\n\n    function identityOf()\n    public\n    view\n    returns (string[] memory, string[] memory, string[] memory, uint256[] memory, string[] memory)\n    {\n        Identity[] memory targetIdentities = identities[msg.sender];\n        uint256 length = targetIdentities.length;\n        string[] memory names = new string[](length);\n        string[] memory dids = new string[](length);\n        string[] memory dappIds = new string[](length);\n        uint256[] memory indexes = new uint256[](length);\n        string[] memory extraInfos = new string[](length);\n\n        for (uint8 i = 0; i < length; i++) {\n            Identity memory identity = targetIdentities[i];\n            names[i] = identity.name;\n            dids[i] = identity.did;\n            dappIds[i] = identity.dappId;\n            indexes[i] = identity.index;\n            extraInfos[i] = identity.extraInfo;\n        }\n\n        return (names, dids, dappIds, indexes, extraInfos);\n    }\n}\n",
  "sourcePath": "/Users/cwzeng/Documents/programs/loyalty/tw-wallet-contract/contracts/Identities.sol",
  "compiler": {
    "name": "solc",
    "version": "0.5.2+commit.1df8f40c.Emscripten.clang"
  },
  "schemaVersion": "3.2.0",
  "updatedAt": "2020-07-21T09:26:15.136Z",
  "devdoc": {
    "methods": {}
  },
  "userdoc": {
    "methods": {}
  }
}