{
  "contractName": "Identities",
  "abi": [
    {
      "anonymous": false,
      "inputs": [
        {
          "indexed": false,
          "name": "name",
          "type": "string"
        },
        {
          "indexed": false,
          "name": "did",
          "type": "string"
        },
        {
          "indexed": false,
          "name": "dappId",
          "type": "string"
        },
        {
          "indexed": false,
          "name": "index",
          "type": "uint256"
        },
        {
          "indexed": false,
          "name": "extraInfo",
          "type": "string"
        },
        {
          "indexed": false,
          "name": "operator",
          "type": "address"
        },
        {
          "indexed": false,
          "name": "publicKey",
          "type": "string"
        }
      ],
      "name": "IdentityRegistered",
      "type": "event"
    },
    {
      "constant": false,
      "inputs": [
        {
          "name": "name",
          "type": "string"
        },
        {
          "name": "did",
          "type": "string"
        },
        {
          "name": "dappId",
          "type": "string"
        },
        {
          "name": "index",
          "type": "uint256"
        },
        {
          "name": "extraInfo",
          "type": "string"
        },
        {
          "name": "publicKey",
          "type": "string"
        }
      ],
      "name": "registerIdentity",
      "outputs": [],
      "payable": false,
      "stateMutability": "nonpayable",
      "type": "function"
    },
    {
      "constant": true,
      "inputs": [],
      "name": "identityOf",
      "outputs": [
        {
          "name": "",
          "type": "string[]"
        },
        {
          "name": "",
          "type": "string[]"
        },
        {
          "name": "",
          "type": "string[]"
        },
        {
          "name": "",
          "type": "uint256[]"
        },
        {
          "name": "",
          "type": "string[]"
        },
        {
          "name": "",
          "type": "string[]"
        }
      ],
      "payable": false,
      "stateMutability": "view",
      "type": "function"
    }
  ],
  "bytecode": "0x608060405234801561001057600080fd5b50610ee5806100206000396000f3fe608060405234801561001057600080fd5b5060043610610053576000357c0100000000000000000000000000000000000000000000000000000000900480634c454cdf146100585780634d3389e91461007b575b600080fd5b610060610097565b60405161007296959493929190610c18565b60405180910390f35b610095600480360361009091908101906109c4565b6106fe565b005b60608060608060608060606000803373ffffffffffffffffffffffffffffffffffffffff1673ffffffffffffffffffffffffffffffffffffffff168152602001908152602001600020805480602002602001604051908101604052809291908181526020016000905b82821015610467578382906000526020600020906006020160c06040519081016040529081600082018054600181600116156101000203166002900480601f0160208091040260200160405190810160405280929190818152602001828054600181600116156101000203166002900480156101bd5780601f10610192576101008083540402835291602001916101bd565b820191906000526020600020905b8154815290600101906020018083116101a057829003601f168201915b50505050508152602001600182018054600181600116156101000203166002900480601f01602080910402602001604051908101604052809291908181526020018280546001816001161561010002031660029004801561025f5780601f106102345761010080835404028352916020019161025f565b820191906000526020600020905b81548152906001019060200180831161024257829003601f168201915b50505050508152602001600282018054600181600116156101000203166002900480601f0160208091040260200160405190810160405280929190818152602001828054600181600116156101000203166002900480156103015780601f106102d657610100808354040283529160200191610301565b820191906000526020600020905b8154815290600101906020018083116102e457829003601f168201915b5050505050815260200160038201548152602001600482018054600181600116156101000203166002900480601f0160208091040260200160405190810160405280929190818152602001828054600181600116156101000203166002900480156103ad5780601f10610382576101008083540402835291602001916103ad565b820191906000526020600020905b81548152906001019060200180831161039057829003601f168201915b50505050508152602001600582018054600181600116156101000203166002900480601f01602080910402602001604051908101604052809291908181526020018280546001816001161561010002031660029004801561044f5780601f106104245761010080835404028352916020019161044f565b820191906000526020600020905b81548152906001019060200180831161043257829003601f168201915b50505050508152505081526020019060010190610100565b5050505090506000815190506060816040519080825280602002602001820160405280156104a957816020015b60608152602001906001900390816104945790505b5090506060826040519080825280602002602001820160405280156104e257816020015b60608152602001906001900390816104cd5790505b50905060608360405190808252806020026020018201604052801561051b57816020015b60608152602001906001900390816105065790505b50905060608460405190808252806020026020018201604052801561054f5781602001602082028038833980820191505090505b50905060608560405190808252806020026020018201604052801561058857816020015b60608152602001906001900390816105735790505b5090506060866040519080825280602002602001820160405280156105c157816020015b60608152602001906001900390816105ac5790505b50905060008090505b878160ff1610156106db576105dd61087e565b898260ff168151811015156105ee57fe5b9060200190602002015190508060000151888360ff1681518110151561061057fe5b906020019060200201819052508060200151878360ff1681518110151561063357fe5b906020019060200201819052508060400151868360ff1681518110151561065657fe5b906020019060200201819052508060600151858360ff1681518110151561067957fe5b90602001906020020181815250508060800151848360ff1681518110151561069d57fe5b906020019060200201819052508060a00151838360ff168151811015156106c057fe5b906020019060200201819052505080806001019150506105ca565b508585858585859d509d509d509d509d509d505050505050505050909192939495565b6000803373ffffffffffffffffffffffffffffffffffffffff1673ffffffffffffffffffffffffffffffffffffffff16815260200190815260200160002060c060405190810160405280888152602001878152602001868152602001858152602001848152602001838152509080600181540180825580915050906001820390600052602060002090600602016000909192909190915060008201518160000190805190602001906107b19291906108b5565b5060208201518160010190805190602001906107ce9291906108b5565b5060408201518160020190805190602001906107eb9291906108b5565b506060820151816003015560808201518160040190805190602001906108129291906108b5565b5060a082015181600501908051906020019061082f9291906108b5565b505050507f81d599038058e758c50f60a23bb08f49a8da84bcd531f921b0bf4e49fad7bed68686868686338760405161086e9796959493929190610ca3565b60405180910390a1505050505050565b60c0604051908101604052806060815260200160608152602001606081526020016000815260200160608152602001606081525090565b828054600181600116156101000203166002900490600052602060002090601f016020900481019282601f106108f657805160ff1916838001178555610924565b82800160010185558215610924579182015b82811115610923578251825591602001919060010190610908565b5b5090506109319190610935565b5090565b61095791905b8082111561095357600081600090555060010161093b565b5090565b90565b600082601f830112151561096d57600080fd5b813561098061097b82610d62565b610d35565b9150808252602083016020830185838301111561099c57600080fd5b6109a7838284610e58565b50505092915050565b60006109bc8235610e18565b905092915050565b60008060008060008060c087890312156109dd57600080fd5b600087013567ffffffffffffffff8111156109f757600080fd5b610a0389828a0161095a565b965050602087013567ffffffffffffffff811115610a2057600080fd5b610a2c89828a0161095a565b955050604087013567ffffffffffffffff811115610a4957600080fd5b610a5589828a0161095a565b9450506060610a6689828a016109b0565b935050608087013567ffffffffffffffff811115610a8357600080fd5b610a8f89828a0161095a565b92505060a087013567ffffffffffffffff811115610aac57600080fd5b610ab889828a0161095a565b9150509295509295509295565b610ace81610e22565b82525050565b6000610adf82610da8565b80845260208401935083602082028501610af885610d8e565b60005b84811015610b31578383038852610b13838351610bd3565b9250610b1e82610dd4565b9150602088019750600181019050610afb565b508196508694505050505092915050565b6000610b4d82610db3565b808452602084019350610b5f83610d9b565b60005b82811015610b9157610b75868351610c09565b610b7e82610de1565b9150602086019550600181019050610b62565b50849250505092915050565b6000610ba882610dc9565b808452610bbc816020860160208601610e67565b610bc581610e9a565b602085010191505092915050565b6000610bde82610dbe565b808452610bf2816020860160208601610e67565b610bfb81610e9a565b602085010191505092915050565b610c1281610e0e565b82525050565b600060c0820190508181036000830152610c328189610ad4565b90508181036020830152610c468188610ad4565b90508181036040830152610c5a8187610ad4565b90508181036060830152610c6e8186610b42565b90508181036080830152610c828185610ad4565b905081810360a0830152610c968184610ad4565b9050979650505050505050565b600060e0820190508181036000830152610cbd818a610b9d565b90508181036020830152610cd18189610b9d565b90508181036040830152610ce58188610b9d565b9050610cf46060830187610c09565b8181036080830152610d068186610b9d565b9050610d1560a0830185610ac5565b81810360c0830152610d278184610b9d565b905098975050505050505050565b6000604051905081810181811067ffffffffffffffff82111715610d5857600080fd5b8060405250919050565b600067ffffffffffffffff821115610d7957600080fd5b601f19601f8301169050602081019050919050565b6000602082019050919050565b6000602082019050919050565b600081519050919050565b600081519050919050565b600081519050919050565b600081519050919050565b6000602082019050919050565b6000602082019050919050565b600073ffffffffffffffffffffffffffffffffffffffff82169050919050565b6000819050919050565b6000819050919050565b6000610e2d82610e34565b9050919050565b6000610e3f82610e46565b9050919050565b6000610e5182610dee565b9050919050565b82818337600083830152505050565b60005b83811015610e85578082015181840152602081019050610e6a565b83811115610e94576000848401525b50505050565b6000601f19601f830116905091905056fea265627a7a723058204961f72f4023f4b7db94f475d3e2b7cafdbf301b49ff651784dc74d8e64a4d156c6578706572696d656e74616cf50037",
  "source": "pragma solidity >=0.5.0 <0.7.0;\npragma experimental ABIEncoderV2;\n\ncontract Identities {\n    struct Identity {\n        string name;\n        string did;\n        string dappId;\n        uint256 index;\n        string extraInfo;\n        string publicKey;\n    }\n\n    mapping(address => Identity[]) identities;\n\n    event IdentityRegistered(\n        string name,\n        string did,\n        string dappId,\n        uint256 index,\n        string extraInfo,\n        address operator,\n        string publicKey\n    );\n\n    function registerIdentity(\n        string memory name,\n        string memory did,\n        string memory dappId,\n        uint256 index,\n        string memory extraInfo,\n        string memory publicKey\n    )\n    public\n    {\n        identities[msg.sender].push(Identity(name, did, dappId, index, extraInfo, publicKey));\n        emit IdentityRegistered(name, did, dappId, index, extraInfo, msg.sender, publicKey);\n    }\n\n\n    function identityOf()\n    public\n    view\n    returns (string[] memory, string[] memory, string[] memory, uint256[] memory, string[] memory, string[] memory)\n    {\n        Identity[] memory targetIdentities = identities[msg.sender];\n        uint256 length = targetIdentities.length;\n        string[] memory names = new string[](length);\n        string[] memory dids = new string[](length);\n        string[] memory dappIds = new string[](length);\n        uint256[] memory indexes = new uint256[](length);\n        string[] memory extraInfos = new string[](length);\n        string[] memory publicKeys = new string[](length);\n\n        for (uint8 i = 0; i < length; i++) {\n            Identity memory identity = targetIdentities[i];\n            names[i] = identity.name;\n            dids[i] = identity.did;\n            dappIds[i] = identity.dappId;\n            indexes[i] = identity.index;\n            extraInfos[i] = identity.extraInfo;\n            publicKeys[i] = identity.publicKey;\n        }\n\n        return (names, dids, dappIds, indexes, extraInfos, publicKeys);\n    }\n}\n",
  "sourcePath": "/Users/yin/projects/twallet/tw-wallet-contract/contracts/Identities.sol",
  "compiler": {
    "name": "solc",
    "version": "0.5.2+commit.1df8f40c.Emscripten.clang"
  },
  "schemaVersion": "3.2.4",
  "updatedAt": "2021-01-12T06:16:08.476Z",
  "networkType": "quorum",
  "devdoc": {
    "methods": {}
  },
  "userdoc": {
    "methods": {}
  }
}