{
  "contractName": "RMB",
  "abi": [
    {
      "inputs": [],
      "stateMutability": "nonpayable",
      "type": "constructor"
    },
    {
      "anonymous": false,
      "inputs": [
        {
          "indexed": true,
          "internalType": "address",
          "name": "account",
          "type": "address"
        },
        {
          "indexed": true,
          "internalType": "address",
          "name": "operator",
          "type": "address"
        },
        {
          "indexed": false,
          "internalType": "bool",
          "name": "approved",
          "type": "bool"
        }
      ],
      "name": "ApprovalForAll",
      "type": "event"
    },
    {
      "anonymous": false,
      "inputs": [
        {
          "indexed": true,
          "internalType": "bytes32",
          "name": "role",
          "type": "bytes32"
        },
        {
          "indexed": true,
          "internalType": "bytes32",
          "name": "previousAdminRole",
          "type": "bytes32"
        },
        {
          "indexed": true,
          "internalType": "bytes32",
          "name": "newAdminRole",
          "type": "bytes32"
        }
      ],
      "name": "RoleAdminChanged",
      "type": "event"
    },
    {
      "anonymous": false,
      "inputs": [
        {
          "indexed": true,
          "internalType": "bytes32",
          "name": "role",
          "type": "bytes32"
        },
        {
          "indexed": true,
          "internalType": "address",
          "name": "account",
          "type": "address"
        },
        {
          "indexed": true,
          "internalType": "address",
          "name": "sender",
          "type": "address"
        }
      ],
      "name": "RoleGranted",
      "type": "event"
    },
    {
      "anonymous": false,
      "inputs": [
        {
          "indexed": true,
          "internalType": "bytes32",
          "name": "role",
          "type": "bytes32"
        },
        {
          "indexed": true,
          "internalType": "address",
          "name": "account",
          "type": "address"
        },
        {
          "indexed": true,
          "internalType": "address",
          "name": "sender",
          "type": "address"
        }
      ],
      "name": "RoleRevoked",
      "type": "event"
    },
    {
      "anonymous": false,
      "inputs": [
        {
          "indexed": true,
          "internalType": "address",
          "name": "operator",
          "type": "address"
        },
        {
          "indexed": true,
          "internalType": "address",
          "name": "from",
          "type": "address"
        },
        {
          "indexed": true,
          "internalType": "address",
          "name": "to",
          "type": "address"
        },
        {
          "indexed": false,
          "internalType": "uint256[]",
          "name": "ids",
          "type": "uint256[]"
        },
        {
          "indexed": false,
          "internalType": "uint256[]",
          "name": "values",
          "type": "uint256[]"
        }
      ],
      "name": "TransferBatch",
      "type": "event"
    },
    {
      "anonymous": false,
      "inputs": [
        {
          "indexed": true,
          "internalType": "address",
          "name": "operator",
          "type": "address"
        },
        {
          "indexed": true,
          "internalType": "address",
          "name": "from",
          "type": "address"
        },
        {
          "indexed": true,
          "internalType": "address",
          "name": "to",
          "type": "address"
        },
        {
          "indexed": false,
          "internalType": "uint256",
          "name": "id",
          "type": "uint256"
        },
        {
          "indexed": false,
          "internalType": "uint256",
          "name": "value",
          "type": "uint256"
        }
      ],
      "name": "TransferSingle",
      "type": "event"
    },
    {
      "anonymous": false,
      "inputs": [
        {
          "indexed": false,
          "internalType": "string",
          "name": "value",
          "type": "string"
        },
        {
          "indexed": true,
          "internalType": "uint256",
          "name": "id",
          "type": "uint256"
        }
      ],
      "name": "URI",
      "type": "event"
    },
    {
      "inputs": [],
      "name": "DEFAULT_ADMIN_ROLE",
      "outputs": [
        {
          "internalType": "bytes32",
          "name": "",
          "type": "bytes32"
        }
      ],
      "stateMutability": "view",
      "type": "function",
      "constant": true
    },
    {
      "inputs": [],
      "name": "MINTER_ROLE",
      "outputs": [
        {
          "internalType": "bytes32",
          "name": "",
          "type": "bytes32"
        }
      ],
      "stateMutability": "view",
      "type": "function",
      "constant": true
    },
    {
      "inputs": [
        {
          "internalType": "address",
          "name": "account",
          "type": "address"
        },
        {
          "internalType": "uint256",
          "name": "id",
          "type": "uint256"
        }
      ],
      "name": "balanceOf",
      "outputs": [
        {
          "internalType": "uint256",
          "name": "",
          "type": "uint256"
        }
      ],
      "stateMutability": "view",
      "type": "function",
      "constant": true
    },
    {
      "inputs": [
        {
          "internalType": "address[]",
          "name": "accounts",
          "type": "address[]"
        },
        {
          "internalType": "uint256[]",
          "name": "ids",
          "type": "uint256[]"
        }
      ],
      "name": "balanceOfBatch",
      "outputs": [
        {
          "internalType": "uint256[]",
          "name": "",
          "type": "uint256[]"
        }
      ],
      "stateMutability": "view",
      "type": "function",
      "constant": true
    },
    {
      "inputs": [
        {
          "internalType": "bytes32",
          "name": "role",
          "type": "bytes32"
        }
      ],
      "name": "getRoleAdmin",
      "outputs": [
        {
          "internalType": "bytes32",
          "name": "",
          "type": "bytes32"
        }
      ],
      "stateMutability": "view",
      "type": "function",
      "constant": true
    },
    {
      "inputs": [
        {
          "internalType": "bytes32",
          "name": "role",
          "type": "bytes32"
        },
        {
          "internalType": "uint256",
          "name": "index",
          "type": "uint256"
        }
      ],
      "name": "getRoleMember",
      "outputs": [
        {
          "internalType": "address",
          "name": "",
          "type": "address"
        }
      ],
      "stateMutability": "view",
      "type": "function",
      "constant": true
    },
    {
      "inputs": [
        {
          "internalType": "bytes32",
          "name": "role",
          "type": "bytes32"
        }
      ],
      "name": "getRoleMemberCount",
      "outputs": [
        {
          "internalType": "uint256",
          "name": "",
          "type": "uint256"
        }
      ],
      "stateMutability": "view",
      "type": "function",
      "constant": true
    },
    {
      "inputs": [
        {
          "internalType": "bytes32",
          "name": "role",
          "type": "bytes32"
        },
        {
          "internalType": "address",
          "name": "account",
          "type": "address"
        }
      ],
      "name": "grantRole",
      "outputs": [],
      "stateMutability": "nonpayable",
      "type": "function"
    },
    {
      "inputs": [
        {
          "internalType": "bytes32",
          "name": "role",
          "type": "bytes32"
        },
        {
          "internalType": "address",
          "name": "account",
          "type": "address"
        }
      ],
      "name": "hasRole",
      "outputs": [
        {
          "internalType": "bool",
          "name": "",
          "type": "bool"
        }
      ],
      "stateMutability": "view",
      "type": "function",
      "constant": true
    },
    {
      "inputs": [
        {
          "internalType": "address",
          "name": "account",
          "type": "address"
        },
        {
          "internalType": "address",
          "name": "operator",
          "type": "address"
        }
      ],
      "name": "isApprovedForAll",
      "outputs": [
        {
          "internalType": "bool",
          "name": "",
          "type": "bool"
        }
      ],
      "stateMutability": "view",
      "type": "function",
      "constant": true
    },
    {
      "inputs": [
        {
          "internalType": "bytes32",
          "name": "role",
          "type": "bytes32"
        },
        {
          "internalType": "address",
          "name": "account",
          "type": "address"
        }
      ],
      "name": "renounceRole",
      "outputs": [],
      "stateMutability": "nonpayable",
      "type": "function"
    },
    {
      "inputs": [
        {
          "internalType": "bytes32",
          "name": "role",
          "type": "bytes32"
        },
        {
          "internalType": "address",
          "name": "account",
          "type": "address"
        }
      ],
      "name": "revokeRole",
      "outputs": [],
      "stateMutability": "nonpayable",
      "type": "function"
    },
    {
      "inputs": [
        {
          "internalType": "address",
          "name": "operator",
          "type": "address"
        },
        {
          "internalType": "bool",
          "name": "approved",
          "type": "bool"
        }
      ],
      "name": "setApprovalForAll",
      "outputs": [],
      "stateMutability": "nonpayable",
      "type": "function"
    },
    {
      "inputs": [
        {
          "internalType": "bytes4",
          "name": "interfaceId",
          "type": "bytes4"
        }
      ],
      "name": "supportsInterface",
      "outputs": [
        {
          "internalType": "bool",
          "name": "",
          "type": "bool"
        }
      ],
      "stateMutability": "view",
      "type": "function",
      "constant": true
    },
    {
      "inputs": [
        {
          "internalType": "uint256",
          "name": "",
          "type": "uint256"
        }
      ],
      "name": "uri",
      "outputs": [
        {
          "internalType": "string",
          "name": "",
          "type": "string"
        }
      ],
      "stateMutability": "view",
      "type": "function",
      "constant": true
    },
    {
      "inputs": [
        {
          "internalType": "address",
          "name": "to",
          "type": "address"
        },
        {
          "internalType": "uint256",
          "name": "id",
          "type": "uint256"
        }
      ],
      "name": "mint",
      "outputs": [],
      "stateMutability": "nonpayable",
      "type": "function"
    },
    {
      "inputs": [
        {
          "internalType": "address",
          "name": "to",
          "type": "address"
        },
        {
          "internalType": "uint256[]",
          "name": "ids",
          "type": "uint256[]"
        }
      ],
      "name": "mintBatch",
      "outputs": [],
      "stateMutability": "nonpayable",
      "type": "function"
    },
    {
      "inputs": [
        {
          "internalType": "address",
          "name": "from",
          "type": "address"
        },
        {
          "internalType": "address",
          "name": "to",
          "type": "address"
        },
        {
          "internalType": "uint256",
          "name": "id",
          "type": "uint256"
        }
      ],
      "name": "safeTransferFrom",
      "outputs": [],
      "stateMutability": "nonpayable",
      "type": "function"
    },
    {
      "inputs": [
        {
          "internalType": "address",
          "name": "from",
          "type": "address"
        },
        {
          "internalType": "address",
          "name": "to",
          "type": "address"
        },
        {
          "internalType": "uint256",
          "name": "id",
          "type": "uint256"
        },
        {
          "internalType": "uint256",
          "name": "amount",
          "type": "uint256"
        },
        {
          "internalType": "bytes",
          "name": "data",
          "type": "bytes"
        }
      ],
      "name": "safeTransferFrom",
      "outputs": [],
      "stateMutability": "nonpayable",
      "type": "function"
    },
    {
      "inputs": [
        {
          "internalType": "address",
          "name": "from",
          "type": "address"
        },
        {
          "internalType": "address",
          "name": "to",
          "type": "address"
        },
        {
          "internalType": "uint256[]",
          "name": "ids",
          "type": "uint256[]"
        }
      ],
      "name": "safeBatchTransferFrom",
      "outputs": [],
      "stateMutability": "nonpayable",
      "type": "function"
    },
    {
      "inputs": [
        {
          "internalType": "address",
          "name": "from",
          "type": "address"
        },
        {
          "internalType": "address",
          "name": "to",
          "type": "address"
        },
        {
          "internalType": "uint256[]",
          "name": "ids",
          "type": "uint256[]"
        },
        {
          "internalType": "uint256[]",
          "name": "amounts",
          "type": "uint256[]"
        },
        {
          "internalType": "bytes",
          "name": "data",
          "type": "bytes"
        }
      ],
      "name": "safeBatchTransferFrom",
      "outputs": [],
      "stateMutability": "nonpayable",
      "type": "function"
    }
  ],
  "bytecode": "0x60806040523480156200001157600080fd5b506040518060600160405280603c815260200162003b9a603c9139620000446301ffc9a760e01b620000e260201b60201c565b6200005581620001eb60201b60201c565b6200006d63d9b67a2660e01b620000e260201b60201c565b62000085630e89341c60e01b620000e260201b60201c565b506200009b6000801b336200020760201b60201c565b620000dc7f9f2df0fed2c77648de5860a4cc508cd0818c85b8b8a1ab4ceeef8d981c8956a6620000d06200021d60201b60201c565b6200020760201b60201c565b62000444565b63ffffffff60e01b817bffffffffffffffffffffffffffffffffffffffffffffffffffffffff191614156200017f576040517f08c379a000000000000000000000000000000000000000000000000000000000815260040180806020018281038252601c8152602001807f4552433136353a20696e76616c696420696e746572666163652069640000000081525060200191505060405180910390fd5b6001600080837bffffffffffffffffffffffffffffffffffffffffffffffffffffffff19167bffffffffffffffffffffffffffffffffffffffffffffffffffffffff1916815260200190815260200160002060006101000a81548160ff02191690831515021790555050565b8060039080519060200190620002039291906200039e565b5050565b6200021982826200022560201b60201c565b5050565b600033905090565b620002548160046000858152602001908152602001600020600001620002c960201b6200205d1790919060201c565b15620002c5576200026a6200021d60201b60201c565b73ffffffffffffffffffffffffffffffffffffffff168173ffffffffffffffffffffffffffffffffffffffff16837f2f8788117e7eff1d82e926ec794901d17c78024a50270940304540a733656f0d60405160405180910390a45b5050565b6000620002f9836000018373ffffffffffffffffffffffffffffffffffffffff1660001b6200030160201b60201c565b905092915050565b60006200031583836200037b60201b60201c565b6200037057826000018290806001815401808255809150506001900390600052602060002001600090919091909150558260000180549050836001016000848152602001908152602001600020819055506001905062000375565b600090505b92915050565b600080836001016000848152602001908152602001600020541415905092915050565b828054600181600116156101000203166002900490600052602060002090601f016020900481019282601f10620003e157805160ff191683800117855562000412565b8280016001018555821562000412579182015b8281111562000411578251825591602001919060010190620003f4565b5b50905062000421919062000425565b5090565b5b808211156200044057600081600090555060010162000426565b5090565b61374680620004546000396000f3fe608060405234801561001057600080fd5b50600436106101365760003560e01c80634e1273f4116100b8578063a22cb4651161007c578063a22cb46514610ab9578063ca15c87314610b09578063d539139314610b4b578063d547741f14610b69578063e985e9c514610bb7578063f242432a14610c3157610136565b80634e1273f41461075c57806375ceb341146108fd5780639010d07c146109d557806391d1485414610a37578063a217fddf14610a9b57610136565b80632eb2c2d6116100ff5780632eb2c2d6146103e15780632f2ff15d1461060457806336568abe1461065257806340c10f19146106a057806342842e0e146106ee57610136565b8062fdd58e1461013b57806301ffc9a71461019d578063034601ec146102005780630e89341c146102f8578063248a9ca31461039f575b600080fd5b6101876004803603604081101561015157600080fd5b81019080803573ffffffffffffffffffffffffffffffffffffffff16906020019092919080359060200190929190505050610d40565b6040518082815260200191505060405180910390f35b6101e8600480360360208110156101b357600080fd5b8101908080357bffffffffffffffffffffffffffffffffffffffffffffffffffffffff19169060200190929190505050610e20565b60405180821515815260200191505060405180910390f35b6102f66004803603606081101561021657600080fd5b81019080803573ffffffffffffffffffffffffffffffffffffffff169060200190929190803573ffffffffffffffffffffffffffffffffffffffff1690602001909291908035906020019064010000000081111561027357600080fd5b82018360208201111561028557600080fd5b803590602001918460208302840111640100000000831117156102a757600080fd5b919080806020026020016040519081016040528093929190818152602001838360200280828437600081840152601f19601f820116905080830192505050505050509192919290505050610e87565b005b6103246004803603602081101561030e57600080fd5b8101908080359060200190929190505050610f4f565b6040518080602001828103825283818151815260200191508051906020019080838360005b83811015610364578082015181840152602081019050610349565b50505050905090810190601f1680156103915780820380516001836020036101000a031916815260200191505b509250505060405180910390f35b6103cb600480360360208110156103b557600080fd5b8101908080359060200190929190505050610ff3565b6040518082815260200191505060405180910390f35b610602600480360360a08110156103f757600080fd5b81019080803573ffffffffffffffffffffffffffffffffffffffff169060200190929190803573ffffffffffffffffffffffffffffffffffffffff1690602001909291908035906020019064010000000081111561045457600080fd5b82018360208201111561046657600080fd5b8035906020019184602083028401116401000000008311171561048857600080fd5b919080806020026020016040519081016040528093929190818152602001838360200280828437600081840152601f19601f820116905080830192505050505050509192919290803590602001906401000000008111156104e857600080fd5b8201836020820111156104fa57600080fd5b8035906020019184602083028401116401000000008311171561051c57600080fd5b919080806020026020016040519081016040528093929190818152602001838360200280828437600081840152601f19601f8201169050808301925050505050505091929192908035906020019064010000000081111561057c57600080fd5b82018360208201111561058e57600080fd5b803590602001918460018302840111640100000000831117156105b057600080fd5b91908080601f016020809104026020016040519081016040528093929190818152602001838380828437600081840152601f19601f820116905080830192505050505050509192919290505050611013565b005b6106506004803603604081101561061a57600080fd5b8101908080359060200190929190803573ffffffffffffffffffffffffffffffffffffffff16906020019092919050505061149e565b005b61069e6004803603604081101561066857600080fd5b8101908080359060200190929190803573ffffffffffffffffffffffffffffffffffffffff169060200190929190505050611528565b005b6106ec600480360360408110156106b657600080fd5b81019080803573ffffffffffffffffffffffffffffffffffffffff169060200190929190803590602001909291905050506115c1565b005b61075a6004803603606081101561070457600080fd5b81019080803573ffffffffffffffffffffffffffffffffffffffff169060200190929190803573ffffffffffffffffffffffffffffffffffffffff1690602001909291908035906020019092919050505061162f565b005b6108a66004803603604081101561077257600080fd5b810190808035906020019064010000000081111561078f57600080fd5b8201836020820111156107a157600080fd5b803590602001918460208302840111640100000000831117156107c357600080fd5b919080806020026020016040519081016040528093929190818152602001838360200280828437600081840152601f19601f8201169050808301925050505050505091929192908035906020019064010000000081111561082357600080fd5b82018360208201111561083557600080fd5b8035906020019184602083028401116401000000008311171561085757600080fd5b919080806020026020016040519081016040528093929190818152602001838360200280828437600081840152601f19601f820116905080830192505050505050509192919290505050611677565b6040518080602001828103825283818151815260200191508051906020019060200280838360005b838110156108e95780820151818401526020810190506108ce565b505050509050019250505060405180910390f35b6109d36004803603604081101561091357600080fd5b81019080803573ffffffffffffffffffffffffffffffffffffffff1690602001909291908035906020019064010000000081111561095057600080fd5b82018360208201111561096257600080fd5b8035906020019184602083028401116401000000008311171561098457600080fd5b919080806020026020016040519081016040528093929190818152602001838360200280828437600081840152601f19601f820116905080830192505050505050509192919290505050611869565b005b610a0b600480360360408110156109eb57600080fd5b81019080803590602001909291908035906020019092919050505061197b565b604051808273ffffffffffffffffffffffffffffffffffffffff16815260200191505060405180910390f35b610a8360048036036040811015610a4d57600080fd5b8101908080359060200190929190803573ffffffffffffffffffffffffffffffffffffffff1690602001909291905050506119ad565b60405180821515815260200191505060405180910390f35b610aa36119df565b6040518082815260200191505060405180910390f35b610b0760048036036040811015610acf57600080fd5b81019080803573ffffffffffffffffffffffffffffffffffffffff1690602001909291908035151590602001909291905050506119e6565b005b610b3560048036036020811015610b1f57600080fd5b8101908080359060200190929190505050611b7f565b6040518082815260200191505060405180910390f35b610b53611ba6565b6040518082815260200191505060405180910390f35b610bb560048036036040811015610b7f57600080fd5b8101908080359060200190929190803573ffffffffffffffffffffffffffffffffffffffff169060200190929190505050611bca565b005b610c1960048036036040811015610bcd57600080fd5b81019080803573ffffffffffffffffffffffffffffffffffffffff169060200190929190803573ffffffffffffffffffffffffffffffffffffffff169060200190929190505050611c54565b60405180821515815260200191505060405180910390f35b610d3e600480360360a0811015610c4757600080fd5b81019080803573ffffffffffffffffffffffffffffffffffffffff169060200190929190803573ffffffffffffffffffffffffffffffffffffffff169060200190929190803590602001909291908035906020019092919080359060200190640100000000811115610cb857600080fd5b820183602082011115610cca57600080fd5b80359060200191846001830284011164010000000083111715610cec57600080fd5b91908080601f016020809104026020016040519081016040528093929190818152602001838380828437600081840152601f19601f820116905080830192505050505050509192919290505050611ce8565b005b60008073ffffffffffffffffffffffffffffffffffffffff168373ffffffffffffffffffffffffffffffffffffffff161415610dc7576040517f08c379a000000000000000000000000000000000000000000000000000000000815260040180806020018281038252602b8152602001806134ef602b913960400191505060405180910390fd5b6001600083815260200190815260200160002060008473ffffffffffffffffffffffffffffffffffffffff1673ffffffffffffffffffffffffffffffffffffffff16815260200190815260200160002054905092915050565b6000806000837bffffffffffffffffffffffffffffffffffffffffffffffffffffffff19167bffffffffffffffffffffffffffffffffffffffffffffffffffffffff1916815260200190815260200160002060009054906101000a900460ff169050919050565b6060815167ffffffffffffffff81118015610ea157600080fd5b50604051908082528060200260200182016040528015610ed05781602001602082028036833780820191505090505b50905060005b8251811015610f06576001828281518110610eed57fe5b6020026020010181815250508080600101915050610ed6565b50610f49848484846040518060400160405280600381526020017f3078300000000000000000000000000000000000000000000000000000000000815250611013565b50505050565b606060038054600181600116156101000203166002900480601f016020809104026020016040519081016040528092919081815260200182805460018160011615610100020316600290048015610fe75780601f10610fbc57610100808354040283529160200191610fe7565b820191906000526020600020905b815481529060010190602001808311610fca57829003601f168201915b50505050509050919050565b600060046000838152602001908152602001600020600201549050919050565b815183511461106d576040517f08c379a00000000000000000000000000000000000000000000000000000000081526004018080602001828103825260288152602001806136996028913960400191505060405180910390fd5b600073ffffffffffffffffffffffffffffffffffffffff168473ffffffffffffffffffffffffffffffffffffffff1614156110f3576040517f08c379a00000000000000000000000000000000000000000000000000000000081526004018080602001828103825260258152602001806135c66025913960400191505060405180910390fd5b6110fb61208d565b73ffffffffffffffffffffffffffffffffffffffff168573ffffffffffffffffffffffffffffffffffffffff16148061114157506111408561113b61208d565b611c54565b5b611196576040517f08c379a00000000000000000000000000000000000000000000000000000000081526004018080602001828103825260328152602001806135eb6032913960400191505060405180910390fd5b60006111a061208d565b90506111b0818787878787612095565b60005b84518110156113815760008582815181106111ca57fe5b6020026020010151905060008583815181106111e257fe5b60200260200101519050611269816040518060600160405280602a815260200161361d602a91396001600086815260200190815260200160002060008d73ffffffffffffffffffffffffffffffffffffffff1673ffffffffffffffffffffffffffffffffffffffff1681526020019081526020016000205461209d9092919063ffffffff16565b6001600084815260200190815260200160002060008b73ffffffffffffffffffffffffffffffffffffffff1673ffffffffffffffffffffffffffffffffffffffff16815260200190815260200160002081905550611320816001600085815260200190815260200160002060008b73ffffffffffffffffffffffffffffffffffffffff1673ffffffffffffffffffffffffffffffffffffffff1681526020019081526020016000205461215d90919063ffffffff16565b6001600084815260200190815260200160002060008a73ffffffffffffffffffffffffffffffffffffffff1673ffffffffffffffffffffffffffffffffffffffff1681526020019081526020016000208190555050508060010190506111b3565b508473ffffffffffffffffffffffffffffffffffffffff168673ffffffffffffffffffffffffffffffffffffffff168273ffffffffffffffffffffffffffffffffffffffff167f4a39dc06d4c0dbc64b70af90fd698a233a518aa5d07e595d983b8c0526c8f7fb8787604051808060200180602001838103835285818151815260200191508051906020019060200280838360005b83811015611431578082015181840152602081019050611416565b50505050905001838103825284818151815260200191508051906020019060200280838360005b83811015611473578082015181840152602081019050611458565b5050505090500194505050505060405180910390a46114968187878787876121e5565b505050505050565b6114c560046000848152602001908152602001600020600201546114c061208d565b6119ad565b61151a576040517f08c379a000000000000000000000000000000000000000000000000000000000815260040180806020018281038252602f8152602001806134c0602f913960400191505060405180910390fd5b6115248282612574565b5050565b61153061208d565b73ffffffffffffffffffffffffffffffffffffffff168173ffffffffffffffffffffffffffffffffffffffff16146115b3576040517f08c379a000000000000000000000000000000000000000000000000000000000815260040180806020018281038252602f8152602001806136e2602f913960400191505060405180910390fd5b6115bd8282612608565b5050565b806115cb8161269c565b6115d3612726565b6115e78260056127ae90919063ffffffff16565b5061162a838360016040518060400160405280600381526020017f30783000000000000000000000000000000000000000000000000000000000008152506127c8565b505050565b61167283838360016040518060400160405280600381526020017f3078300000000000000000000000000000000000000000000000000000000000815250611ce8565b505050565b606081518351146116d3576040517f08c379a00000000000000000000000000000000000000000000000000000000081526004018080602001828103825260298152602001806136706029913960400191505060405180910390fd5b6060835167ffffffffffffffff811180156116ed57600080fd5b5060405190808252806020026020018201604052801561171c5781602001602082028036833780820191505090505b50905060005b845181101561185e57600073ffffffffffffffffffffffffffffffffffffffff1685828151811061174f57fe5b602002602001015173ffffffffffffffffffffffffffffffffffffffff1614156117c4576040517f08c379a000000000000000000000000000000000000000000000000000000000815260040180806020018281038252603181526020018061351a6031913960400191505060405180910390fd5b600160008583815181106117d457fe5b6020026020010151815260200190815260200160002060008683815181106117f857fe5b602002602001015173ffffffffffffffffffffffffffffffffffffffff1673ffffffffffffffffffffffffffffffffffffffff1681526020019081526020016000205482828151811061184757fe5b602002602001018181525050806001019050611722565b508091505092915050565b611871612726565b6060815167ffffffffffffffff8111801561188b57600080fd5b506040519080825280602002602001820160405280156118ba5781602001602082028036833780820191505090505b50905060005b8251811015611934576118e58382815181106118d857fe5b602002602001015161269c565b61190c8382815181106118f457fe5b602002602001015160056127ae90919063ffffffff16565b50600182828151811061191b57fe5b60200260200101818152505080806001019150506118c0565b506119768383836040518060400160405280600381526020017f30783000000000000000000000000000000000000000000000000000000000008152506129cb565b505050565b60006119a58260046000868152602001908152602001600020600001612ced90919063ffffffff16565b905092915050565b60006119d78260046000868152602001908152602001600020600001612d0790919063ffffffff16565b905092915050565b6000801b81565b8173ffffffffffffffffffffffffffffffffffffffff16611a0561208d565b73ffffffffffffffffffffffffffffffffffffffff161415611a72576040517f08c379a00000000000000000000000000000000000000000000000000000000081526004018080602001828103825260298152602001806136476029913960400191505060405180910390fd5b8060026000611a7f61208d565b73ffffffffffffffffffffffffffffffffffffffff1673ffffffffffffffffffffffffffffffffffffffff16815260200190815260200160002060008473ffffffffffffffffffffffffffffffffffffffff1673ffffffffffffffffffffffffffffffffffffffff16815260200190815260200160002060006101000a81548160ff0219169083151502179055508173ffffffffffffffffffffffffffffffffffffffff16611b2c61208d565b73ffffffffffffffffffffffffffffffffffffffff167f17307eab39ab6107e8899845ad3d59bd9653f200f220920489ca2b5937696c318360405180821515815260200191505060405180910390a35050565b6000611b9f60046000848152602001908152602001600020600001612d37565b9050919050565b7f9f2df0fed2c77648de5860a4cc508cd0818c85b8b8a1ab4ceeef8d981c8956a681565b611bf16004600084815260200190815260200160002060020154611bec61208d565b6119ad565b611c46576040517f08c379a00000000000000000000000000000000000000000000000000000000081526004018080602001828103825260308152602001806135966030913960400191505060405180910390fd5b611c508282612608565b5050565b6000600260008473ffffffffffffffffffffffffffffffffffffffff1673ffffffffffffffffffffffffffffffffffffffff16815260200190815260200160002060008373ffffffffffffffffffffffffffffffffffffffff1673ffffffffffffffffffffffffffffffffffffffff16815260200190815260200160002060009054906101000a900460ff16905092915050565b600073ffffffffffffffffffffffffffffffffffffffff168473ffffffffffffffffffffffffffffffffffffffff161415611d6e576040517f08c379a00000000000000000000000000000000000000000000000000000000081526004018080602001828103825260258152602001806135c66025913960400191505060405180910390fd5b611d7661208d565b73ffffffffffffffffffffffffffffffffffffffff168573ffffffffffffffffffffffffffffffffffffffff161480611dbc5750611dbb85611db661208d565b611c54565b5b611e11576040517f08c379a000000000000000000000000000000000000000000000000000000000815260040180806020018281038252602981526020018061354b6029913960400191505060405180910390fd5b6000611e1b61208d565b9050611e3b818787611e2c88612d4c565b611e3588612d4c565b87612095565b611eb8836040518060600160405280602a815260200161361d602a91396001600088815260200190815260200160002060008a73ffffffffffffffffffffffffffffffffffffffff1673ffffffffffffffffffffffffffffffffffffffff1681526020019081526020016000205461209d9092919063ffffffff16565b6001600086815260200190815260200160002060008873ffffffffffffffffffffffffffffffffffffffff1673ffffffffffffffffffffffffffffffffffffffff16815260200190815260200160002081905550611f6f836001600087815260200190815260200160002060008873ffffffffffffffffffffffffffffffffffffffff1673ffffffffffffffffffffffffffffffffffffffff1681526020019081526020016000205461215d90919063ffffffff16565b6001600086815260200190815260200160002060008773ffffffffffffffffffffffffffffffffffffffff1673ffffffffffffffffffffffffffffffffffffffff168152602001908152602001600020819055508473ffffffffffffffffffffffffffffffffffffffff168673ffffffffffffffffffffffffffffffffffffffff168273ffffffffffffffffffffffffffffffffffffffff167fc3d58168c5ae7397731d063d5bbf3d657854427343f4c083240f7aacaa2d0f628787604051808381526020018281526020019250505060405180910390a4612055818787878787612dbc565b505050505050565b6000612085836000018373ffffffffffffffffffffffffffffffffffffffff1660001b6130c9565b905092915050565b600033905090565b505050505050565b600083831115829061214a576040517f08c379a00000000000000000000000000000000000000000000000000000000081526004018080602001828103825283818151815260200191508051906020019080838360005b8381101561210f5780820151818401526020810190506120f4565b50505050905090810190601f16801561213c5780820380516001836020036101000a031916815260200191505b509250505060405180910390fd5b5060008385039050809150509392505050565b6000808284019050838110156121db576040517f08c379a000000000000000000000000000000000000000000000000000000000815260040180806020018281038252601b8152602001807f536166654d6174683a206164646974696f6e206f766572666c6f77000000000081525060200191505060405180910390fd5b8091505092915050565b6122048473ffffffffffffffffffffffffffffffffffffffff16613139565b1561256c578373ffffffffffffffffffffffffffffffffffffffff1663bc197c8187878686866040518663ffffffff1660e01b8152600401808673ffffffffffffffffffffffffffffffffffffffff1681526020018573ffffffffffffffffffffffffffffffffffffffff168152602001806020018060200180602001848103845287818151815260200191508051906020019060200280838360005b838110156122bc5780820151818401526020810190506122a1565b50505050905001848103835286818151815260200191508051906020019060200280838360005b838110156122fe5780820151818401526020810190506122e3565b50505050905001848103825285818151815260200191508051906020019080838360005b8381101561233d578082015181840152602081019050612322565b50505050905090810190601f16801561236a5780820380516001836020036101000a031916815260200191505b5098505050505050505050602060405180830381600087803b15801561238f57600080fd5b505af19250505080156123c357506040513d60208110156123af57600080fd5b810190808051906020019092919050505060015b6124cd576123cf61338b565b806123da575061247c565b806040517f08c379a00000000000000000000000000000000000000000000000000000000081526004018080602001828103825283818151815260200191508051906020019080838360005b83811015612441578082015181840152602081019050612426565b50505050905090810190601f16801561246e5780820380516001836020036101000a031916815260200191505b509250505060405180910390fd5b6040517f08c379a00000000000000000000000000000000000000000000000000000000081526004018080602001828103825260348152602001806134426034913960400191505060405180910390fd5b63bc197c8160e01b7bffffffffffffffffffffffffffffffffffffffffffffffffffffffff1916817bffffffffffffffffffffffffffffffffffffffffffffffffffffffff19161461256a576040517f08c379a00000000000000000000000000000000000000000000000000000000081526004018080602001828103825260288152602001806134986028913960400191505060405180910390fd5b505b505050505050565b61259c816004600085815260200190815260200160002060000161205d90919063ffffffff16565b15612604576125a961208d565b73ffffffffffffffffffffffffffffffffffffffff168173ffffffffffffffffffffffffffffffffffffffff16837f2f8788117e7eff1d82e926ec794901d17c78024a50270940304540a733656f0d60405160405180910390a45b5050565b612630816004600085815260200190815260200160002060000161318490919063ffffffff16565b156126985761263d61208d565b73ffffffffffffffffffffffffffffffffffffffff168173ffffffffffffffffffffffffffffffffffffffff16837ff6391f5c32d9c69d2a47ea670b442974b53935d1edc7fd64eb21e047a839171b60405160405180910390a45b5050565b6126b08160056131b490919063ffffffff16565b15612723576040517f08c379a00000000000000000000000000000000000000000000000000000000081526004018080602001828103825260158152602001807f524d423a206964206973206475706c696361746564000000000000000000000081525060200191505060405180910390fd5b50565b6127577f9f2df0fed2c77648de5860a4cc508cd0818c85b8b8a1ab4ceeef8d981c8956a661275261208d565b6119ad565b6127ac576040517f08c379a00000000000000000000000000000000000000000000000000000000081526004018080602001828103825260228152602001806135746022913960400191505060405180910390fd5b565b60006127c0836000018360001b6130c9565b905092915050565b600073ffffffffffffffffffffffffffffffffffffffff168473ffffffffffffffffffffffffffffffffffffffff16141561284e576040517f08c379a00000000000000000000000000000000000000000000000000000000081526004018080602001828103825260218152602001806136c16021913960400191505060405180910390fd5b600061285861208d565b90506128798160008761286a88612d4c565b61287388612d4c565b87612095565b6128dc836001600087815260200190815260200160002060008873ffffffffffffffffffffffffffffffffffffffff1673ffffffffffffffffffffffffffffffffffffffff1681526020019081526020016000205461215d90919063ffffffff16565b6001600086815260200190815260200160002060008773ffffffffffffffffffffffffffffffffffffffff1673ffffffffffffffffffffffffffffffffffffffff168152602001908152602001600020819055508473ffffffffffffffffffffffffffffffffffffffff16600073ffffffffffffffffffffffffffffffffffffffff168273ffffffffffffffffffffffffffffffffffffffff167fc3d58168c5ae7397731d063d5bbf3d657854427343f4c083240f7aacaa2d0f628787604051808381526020018281526020019250505060405180910390a46129c481600087878787612dbc565b5050505050565b600073ffffffffffffffffffffffffffffffffffffffff168473ffffffffffffffffffffffffffffffffffffffff161415612a51576040517f08c379a00000000000000000000000000000000000000000000000000000000081526004018080602001828103825260218152602001806136c16021913960400191505060405180910390fd5b8151835114612aab576040517f08c379a00000000000000000000000000000000000000000000000000000000081526004018080602001828103825260288152602001806136996028913960400191505060405180910390fd5b6000612ab561208d565b9050612ac681600087878787612095565b60005b8451811015612bcf57612b5b60016000878481518110612ae557fe5b6020026020010151815260200190815260200160002060008873ffffffffffffffffffffffffffffffffffffffff1673ffffffffffffffffffffffffffffffffffffffff16815260200190815260200160002054858381518110612b4557fe5b602002602001015161215d90919063ffffffff16565b60016000878481518110612b6b57fe5b6020026020010151815260200190815260200160002060008873ffffffffffffffffffffffffffffffffffffffff1673ffffffffffffffffffffffffffffffffffffffff168152602001908152602001600020819055508080600101915050612ac9565b508473ffffffffffffffffffffffffffffffffffffffff16600073ffffffffffffffffffffffffffffffffffffffff168273ffffffffffffffffffffffffffffffffffffffff167f4a39dc06d4c0dbc64b70af90fd698a233a518aa5d07e595d983b8c0526c8f7fb8787604051808060200180602001838103835285818151815260200191508051906020019060200280838360005b83811015612c80578082015181840152602081019050612c65565b50505050905001838103825284818151815260200191508051906020019060200280838360005b83811015612cc2578082015181840152602081019050612ca7565b5050505090500194505050505060405180910390a4612ce6816000878787876121e5565b5050505050565b6000612cfc83600001836131ce565b60001c905092915050565b6000612d2f836000018373ffffffffffffffffffffffffffffffffffffffff1660001b613251565b905092915050565b6000612d4582600001613274565b9050919050565b606080600167ffffffffffffffff81118015612d6757600080fd5b50604051908082528060200260200182016040528015612d965781602001602082028036833780820191505090505b5090508281600081518110612da757fe5b60200260200101818152505080915050919050565b612ddb8473ffffffffffffffffffffffffffffffffffffffff16613139565b156130c1578373ffffffffffffffffffffffffffffffffffffffff1663f23a6e6187878686866040518663ffffffff1660e01b8152600401808673ffffffffffffffffffffffffffffffffffffffff1681526020018573ffffffffffffffffffffffffffffffffffffffff16815260200184815260200183815260200180602001828103825283818151815260200191508051906020019080838360005b83811015612e94578082015181840152602081019050612e79565b50505050905090810190601f168015612ec15780820380516001836020036101000a031916815260200191505b509650505050505050602060405180830381600087803b158015612ee457600080fd5b505af1925050508015612f1857506040513d6020811015612f0457600080fd5b810190808051906020019092919050505060015b61302257612f2461338b565b80612f2f5750612fd1565b806040517f08c379a00000000000000000000000000000000000000000000000000000000081526004018080602001828103825283818151815260200191508051906020019080838360005b83811015612f96578082015181840152602081019050612f7b565b50505050905090810190601f168015612fc35780820380516001836020036101000a031916815260200191505b509250505060405180910390fd5b6040517f08c379a00000000000000000000000000000000000000000000000000000000081526004018080602001828103825260348152602001806134426034913960400191505060405180910390fd5b63f23a6e6160e01b7bffffffffffffffffffffffffffffffffffffffffffffffffffffffff1916817bffffffffffffffffffffffffffffffffffffffffffffffffffffffff1916146130bf576040517f08c379a00000000000000000000000000000000000000000000000000000000081526004018080602001828103825260288152602001806134986028913960400191505060405180910390fd5b505b505050505050565b60006130d58383613251565b61312e578260000182908060018154018082558091505060019003906000526020600020016000909190919091505582600001805490508360010160008481526020019081526020016000208190555060019050613133565b600090505b92915050565b60008060007fc5d2460186f7233c927e7db2dcc703c0e500b653ca82273b7bfad8045d85a47060001b9050833f915080821415801561317b57506000801b8214155b92505050919050565b60006131ac836000018373ffffffffffffffffffffffffffffffffffffffff1660001b613285565b905092915050565b60006131c6836000018360001b613251565b905092915050565b60008183600001805490501161322f576040517f08c379a00000000000000000000000000000000000000000000000000000000081526004018080602001828103825260228152602001806134766022913960400191505060405180910390fd5b82600001828154811061323e57fe5b9060005260206000200154905092915050565b600080836001016000848152602001908152602001600020541415905092915050565b600081600001805490509050919050565b6000808360010160008481526020019081526020016000205490506000811461336157600060018203905060006001866000018054905003905060008660000182815481106132d057fe5b90600052602060002001549050808760000184815481106132ed57fe5b906000526020600020018190555060018301876001016000838152602001908152602001600020819055508660000180548061332557fe5b60019003818190600052602060002001600090559055866001016000878152602001908152602001600020600090556001945050505050613367565b60009150505b92915050565b6000601f19601f8301169050919050565b60008160e01c9050919050565b600060443d101561339b5761343e565b60046000803e6133ac60005161337e565b6308c379a081146133bd575061343e565b60405160043d036004823e80513d602482011167ffffffffffffffff821117156133e95750505061343e565b808201805167ffffffffffffffff81111561340857505050505061343e565b8060208301013d85018111156134235750505050505061343e565b61342c8261336d565b60208401016040528296505050505050505b9056fe455243313135353a207472616e7366657220746f206e6f6e2045524331313535526563656976657220696d706c656d656e746572456e756d657261626c655365743a20696e646578206f7574206f6620626f756e6473455243313135353a204552433131353552656365697665722072656a656374656420746f6b656e73416363657373436f6e74726f6c3a2073656e646572206d75737420626520616e2061646d696e20746f206772616e74455243313135353a2062616c616e636520717565727920666f7220746865207a65726f2061646472657373455243313135353a2062617463682062616c616e636520717565727920666f7220746865207a65726f2061646472657373455243313135353a2063616c6c6572206973206e6f74206f776e6572206e6f7220617070726f766564524d423a206d7573742068617665206d696e74657220726f6c6520746f206d696e74416363657373436f6e74726f6c3a2073656e646572206d75737420626520616e2061646d696e20746f207265766f6b65455243313135353a207472616e7366657220746f20746865207a65726f2061646472657373455243313135353a207472616e736665722063616c6c6572206973206e6f74206f776e6572206e6f7220617070726f766564455243313135353a20696e73756666696369656e742062616c616e636520666f72207472616e73666572455243313135353a2073657474696e6720617070726f76616c2073746174757320666f722073656c66455243313135353a206163636f756e747320616e6420696473206c656e677468206d69736d61746368455243313135353a2069647320616e6420616d6f756e7473206c656e677468206d69736d61746368455243313135353a206d696e7420746f20746865207a65726f2061646472657373416363657373436f6e74726f6c3a2063616e206f6e6c792072656e6f756e636520726f6c657320666f722073656c66a2646970667358221220454cbdccdd408ed0760136e6fb828f43950c597f9f9dd39326eacb20a4d638a364736f6c634300060c003368747470733a2f2f77616c6c65742e626c6f636b636861696e2e74686f75676874776f726b732e636e3a31303434332f76312f646365702f7b69647d",
  "source": "// contracts/MyNFT.sol\n// SPDX-License-Identifier: MIT\n\npragma solidity >=0.4.21 <0.7.0;\n\nimport \"./ERC1155/ERC1155.sol\";\nimport \"@openzeppelin/contracts/access/AccessControl.sol\";\nimport \"@openzeppelin/contracts/utils/EnumerableSet.sol\";\n\ncontract RMB is ERC1155, AccessControl {\n\n    // Add the library methods\n    using EnumerableSet for EnumerableSet.UintSet;\n\n    // \n    EnumerableSet.UintSet IdsSet;\n\n    bytes32 public constant MINTER_ROLE = keccak256(\"MINTER_ROLE\");\n\n    // , rmb1\n    uint256 constant CIRCULATION = 1;\n\n\n    constructor() public ERC1155(\"https://wallet.blockchain.thoughtworks.cn:10443/v1/dcep/{id}\") {\n        // Grant the contract deployer the default admin role: it will be able\n        // to grant and revoke any roles\n        _setupRole(DEFAULT_ADMIN_ROLE, msg.sender);\n        _setupRole(MINTER_ROLE, _msgSender());\n    }\n\n    modifier checkDuplicatedID(uint256 id)  {\n        _checkDuplicatedID(id);\n        _;\n    }\n\n    modifier checkMinter()  {\n        _checkMinter();\n        _;\n    }\n    function _checkDuplicatedID(uint256 id) view internal {\n        require(!IdsSet.contains(id), \"RMB: id is duplicated\");\n    }\n\n    function _checkMinter() view internal {\n        require(hasRole(MINTER_ROLE, _msgSender()), \"RMB: must have minter role to mint\");\n    }\n    /**\n     * @dev Creates `amount` new tokens for `to`, of token type `id`.\n     *\n     * See {ERC1155-_mint}.\n     *\n     * Requirements:\n     *\n     * - the caller must have the `MINTER_ROLE`.\n     */\n    function mint(address to, uint256 id) public virtual checkDuplicatedID(id) checkMinter {\n        IdsSet.add(id);\n        _mint(to, id, CIRCULATION, \"0x0\");\n    }\n\n    function mintBatch(address to, uint256[] memory ids) public virtual checkMinter {\n        uint256[] memory amounts = new uint256[](ids.length);\n        for (uint i = 0; i < ids.length; i++) {\n            _checkDuplicatedID(ids[i]);\n            IdsSet.add(ids[i]);\n            amounts[i] = CIRCULATION;\n        }\n        _mintBatch(to, ids, amounts, \"0x0\");\n    }\n\n    function safeTransferFrom(\n        address from,\n        address to,\n        uint256 id\n    )\n    public\n    {\n        super.safeTransferFrom(from, to, id, CIRCULATION, \"0x0\");\n    }\n\n    function safeBatchTransferFrom(\n        address from,\n        address to,\n        uint256[] memory ids\n    )\n    public\n    {\n        uint256[] memory amounts = new uint256[](ids.length);\n        for (uint i = 0; i < ids.length; i++) {\n            amounts[i] = CIRCULATION;\n        }\n        super.safeBatchTransferFrom(from, to, ids, amounts, \"0x0\");\n\n    }\n}",
  "sourcePath": "/Users/yin/projects/twallet/dcep-contract/contracts/RMB.sol",
  "compiler": {
    "name": "solc",
    "version": "0.6.12+commit.27d51765.Emscripten.clang"
  },
  "schemaVersion": "3.0.23",
  "updatedAt": "2020-08-31T03:34:41.652Z",
  "networkType": "quorum",
  "devdoc": {
    "kind": "dev",
    "methods": {
      "balanceOf(address,uint256)": {
        "details": "See {IERC1155-balanceOf}. Requirements: - `account` cannot be the zero address."
      },
      "balanceOfBatch(address[],uint256[])": {
        "details": "See {IERC1155-balanceOfBatch}. Requirements: - `accounts` and `ids` must have the same length."
      },
      "getRoleAdmin(bytes32)": {
        "details": "Returns the admin role that controls `role`. See {grantRole} and {revokeRole}. To change a role's admin, use {_setRoleAdmin}."
      },
      "getRoleMember(bytes32,uint256)": {
        "details": "Returns one of the accounts that have `role`. `index` must be a value between 0 and {getRoleMemberCount}, non-inclusive. Role bearers are not sorted in any particular way, and their ordering may change at any point. WARNING: When using {getRoleMember} and {getRoleMemberCount}, make sure you perform all queries on the same block. See the following https://forum.openzeppelin.com/t/iterating-over-elements-on-enumerableset-in-openzeppelin-contracts/2296[forum post] for more information."
      },
      "getRoleMemberCount(bytes32)": {
        "details": "Returns the number of accounts that have `role`. Can be used together with {getRoleMember} to enumerate all bearers of a role."
      },
      "grantRole(bytes32,address)": {
        "details": "Grants `role` to `account`. If `account` had not been already granted `role`, emits a {RoleGranted} event. Requirements: - the caller must have ``role``'s admin role."
      },
      "hasRole(bytes32,address)": {
        "details": "Returns `true` if `account` has been granted `role`."
      },
      "isApprovedForAll(address,address)": {
        "details": "See {IERC1155-isApprovedForAll}."
      },
      "mint(address,uint256)": {
        "details": "Creates `amount` new tokens for `to`, of token type `id`. See {ERC1155-_mint}. Requirements: - the caller must have the `MINTER_ROLE`."
      },
      "renounceRole(bytes32,address)": {
        "details": "Revokes `role` from the calling account. Roles are often managed via {grantRole} and {revokeRole}: this function's purpose is to provide a mechanism for accounts to lose their privileges if they are compromised (such as when a trusted device is misplaced). If the calling account had been granted `role`, emits a {RoleRevoked} event. Requirements: - the caller must be `account`."
      },
      "revokeRole(bytes32,address)": {
        "details": "Revokes `role` from `account`. If `account` had been granted `role`, emits a {RoleRevoked} event. Requirements: - the caller must have ``role``'s admin role."
      },
      "safeBatchTransferFrom(address,address,uint256[],uint256[],bytes)": {
        "details": "See {IERC1155-safeBatchTransferFrom}."
      },
      "safeTransferFrom(address,address,uint256,uint256,bytes)": {
        "details": "See {IERC1155-safeTransferFrom}."
      },
      "setApprovalForAll(address,bool)": {
        "details": "See {IERC1155-setApprovalForAll}."
      },
      "supportsInterface(bytes4)": {
        "details": "See {IERC165-supportsInterface}. Time complexity O(1), guaranteed to always use less than 30 000 gas."
      },
      "uri(uint256)": {
        "details": "See {IERC1155MetadataURI-uri}. This implementation returns the same URI for *all* token types. It relies on the token type ID substituion mechanism https://eips.ethereum.org/EIPS/eip-1155#metadata[defined in the EIP]. Clients calling this function must replace the `\\{id\\}` substring with the actual token type ID."
      }
    },
    "version": 1
  },
  "userdoc": {
    "kind": "user",
    "methods": {},
    "version": 1
  }
}