{
  "contractName": "IdentityRegistry",
  "abi": [
    {
      "anonymous": false,
      "inputs": [
        {
          "indexed": true,
          "name": "initiator",
          "type": "address"
        },
        {
          "indexed": false,
          "name": "ownerAddress",
          "type": "address"
        },
        {
          "indexed": false,
          "name": "did",
          "type": "string"
        },
        {
          "indexed": false,
          "name": "publicKey",
          "type": "string"
        },
        {
          "indexed": false,
          "name": "name",
          "type": "string"
        }
      ],
      "name": "IdentityCreated",
      "type": "event"
    },
    {
      "constant": true,
      "inputs": [
        {
          "name": "ownerAddress",
          "type": "address"
        }
      ],
      "name": "identityExists",
      "outputs": [
        {
          "name": "",
          "type": "bool"
        }
      ],
      "payable": false,
      "stateMutability": "view",
      "type": "function"
    },
    {
      "constant": true,
      "inputs": [
        {
          "name": "ownerAddress",
          "type": "address"
        }
      ],
      "name": "getIdentity",
      "outputs": [
        {
          "name": "_ownerAddress",
          "type": "address"
        },
        {
          "name": "_did",
          "type": "string"
        },
        {
          "name": "_publicKey",
          "type": "string"
        },
        {
          "name": "_name",
          "type": "string"
        }
      ],
      "payable": false,
      "stateMutability": "view",
      "type": "function"
    },
    {
      "constant": false,
      "inputs": [
        {
          "name": "ownerAddress",
          "type": "address"
        },
        {
          "name": "did",
          "type": "string"
        },
        {
          "name": "publicKey",
          "type": "string"
        },
        {
          "name": "name",
          "type": "string"
        }
      ],
      "name": "createIdentity",
      "outputs": [
        {
          "name": "_ownerAddress",
          "type": "address"
        },
        {
          "name": "_did",
          "type": "string"
        },
        {
          "name": "_publicKey",
          "type": "string"
        },
        {
          "name": "_name",
          "type": "string"
        }
      ],
      "payable": false,
      "stateMutability": "nonpayable",
      "type": "function"
    }
  ],
  "bytecode": "0x608060405234801561001057600080fd5b50611018806100206000396000f3fe608060405234801561001057600080fd5b506004361061005e576000357c0100000000000000000000000000000000000000000000000000000000900480631c1d306c146100635780632fea7b81146103f05780634d221b85146105b8575b600080fd5b61026a6004803603608081101561007957600080fd5b81019080803573ffffffffffffffffffffffffffffffffffffffff169060200190929190803590602001906401000000008111156100b657600080fd5b8201836020820111156100c857600080fd5b803590602001918460018302840111640100000000831117156100ea57600080fd5b91908080601f016020809104026020016040519081016040528093929190818152602001838380828437600081840152601f19601f8201169050808301925050505050505091929192908035906020019064010000000081111561014d57600080fd5b82018360208201111561015f57600080fd5b8035906020019184600183028401116401000000008311171561018157600080fd5b91908080601f016020809104026020016040519081016040528093929190818152602001838380828437600081840152601f19601f820116905080830192505050505050509192919290803590602001906401000000008111156101e457600080fd5b8201836020820111156101f657600080fd5b8035906020019184600183028401116401000000008311171561021857600080fd5b91908080601f016020809104026020016040519081016040528093929190818152602001838380828437600081840152601f19601f820116905080830192505050505050509192919290505050610614565b604051808573ffffffffffffffffffffffffffffffffffffffff1673ffffffffffffffffffffffffffffffffffffffff168152602001806020018060200180602001848103845287818151815260200191508051906020019080838360005b838110156102e45780820151818401526020810190506102c9565b50505050905090810190601f1680156103115780820380516001836020036101000a031916815260200191505b50848103835286818151815260200191508051906020019080838360005b8381101561034a57808201518184015260208101905061032f565b50505050905090810190601f1680156103775780820380516001836020036101000a031916815260200191505b50848103825285818151815260200191508051906020019080838360005b838110156103b0578082015181840152602081019050610395565b50505050905090810190601f1680156103dd5780820380516001836020036101000a031916815260200191505b5097505050505050505060405180910390f35b6104326004803603602081101561040657600080fd5b81019080803573ffffffffffffffffffffffffffffffffffffffff169060200190929190505050610bd8565b604051808573ffffffffffffffffffffffffffffffffffffffff1673ffffffffffffffffffffffffffffffffffffffff168152602001806020018060200180602001848103845287818151815260200191508051906020019080838360005b838110156104ac578082015181840152602081019050610491565b50505050905090810190601f1680156104d95780820380516001836020036101000a031916815260200191505b50848103835286818151815260200191508051906020019080838360005b838110156105125780820151818401526020810190506104f7565b50505050905090810190601f16801561053f5780820380516001836020036101000a031916815260200191505b50848103825285818151815260200191508051906020019080838360005b8381101561057857808201518184015260208101905061055d565b50505050905090810190601f1680156105a55780820380516001836020036101000a031916815260200191505b5097505050505050505060405180910390f35b6105fa600480360360208110156105ce57600080fd5b81019080803573ffffffffffffffffffffffffffffffffffffffff169060200190929190505050610ef1565b604051808215151515815260200191505060405180910390f35b60006060806060878073ffffffffffffffffffffffffffffffffffffffff163373ffffffffffffffffffffffffffffffffffffffff1614151561065657600080fd5b8861066081610ef1565b1515156106d5576040517f08c379a000000000000000000000000000000000000000000000000000000000815260040180806020018281038252601b8152602001807f546865206964656e7469747920616c72656164792065786973742e000000000081525060200191505060405180910390fd5b60008060008c73ffffffffffffffffffffffffffffffffffffffff1673ffffffffffffffffffffffffffffffffffffffff16815260200190815260200160002090508a8160000160006101000a81548173ffffffffffffffffffffffffffffffffffffffff021916908373ffffffffffffffffffffffffffffffffffffffff16021790555089816001019080519060200190610772929190610f47565b508881600201908051906020019061078b929190610f47565b50878160030190805190602001906107a4929190610f47565b5060018060008d73ffffffffffffffffffffffffffffffffffffffff1673ffffffffffffffffffffffffffffffffffffffff16815260200190815260200160002060006101000a81548160ff0219169083151502179055503373ffffffffffffffffffffffffffffffffffffffff167f704858ee1e08e112e37cbe980ec85e18cbb10d8e4fbf5b35cc03f41317026c728c8c8c8c604051808573ffffffffffffffffffffffffffffffffffffffff1673ffffffffffffffffffffffffffffffffffffffff168152602001806020018060200180602001848103845287818151815260200191508051906020019080838360005b838110156108b2578082015181840152602081019050610897565b50505050905090810190601f1680156108df5780820380516001836020036101000a031916815260200191505b50848103835286818151815260200191508051906020019080838360005b838110156109185780820151818401526020810190506108fd565b50505050905090810190601f1680156109455780820380516001836020036101000a031916815260200191505b50848103825285818151815260200191508051906020019080838360005b8381101561097e578082015181840152602081019050610963565b50505050905090810190601f1680156109ab5780820380516001836020036101000a031916815260200191505b5097505050505050505060405180910390a28060000160009054906101000a900473ffffffffffffffffffffffffffffffffffffffff16816001018260020183600301828054600181600116156101000203166002900480601f016020809104026020016040519081016040528092919081815260200182805460018160011615610100020316600290048015610a835780601f10610a5857610100808354040283529160200191610a83565b820191906000526020600020905b815481529060010190602001808311610a6657829003601f168201915b50505050509250818054600181600116156101000203166002900480601f016020809104026020016040519081016040528092919081815260200182805460018160011615610100020316600290048015610b1f5780601f10610af457610100808354040283529160200191610b1f565b820191906000526020600020905b815481529060010190602001808311610b0257829003601f168201915b50505050509150808054600181600116156101000203166002900480601f016020809104026020016040519081016040528092919081815260200182805460018160011615610100020316600290048015610bbb5780601f10610b9057610100808354040283529160200191610bbb565b820191906000526020600020905b815481529060010190602001808311610b9e57829003601f168201915b505050505090509650965096509650505050945094509450949050565b60006060806060848073ffffffffffffffffffffffffffffffffffffffff163373ffffffffffffffffffffffffffffffffffffffff16141515610c1a57600080fd5b85610c2481610ef1565b1515610c98576040517f08c379a000000000000000000000000000000000000000000000000000000000815260040180806020018281038252601c8152602001807f546865206964656e7469747920646f6573206e6f742065786973742e0000000081525060200191505060405180910390fd5b60008060008973ffffffffffffffffffffffffffffffffffffffff1673ffffffffffffffffffffffffffffffffffffffff16815260200190815260200160002090508060000160009054906101000a900473ffffffffffffffffffffffffffffffffffffffff16816001018260020183600301828054600181600116156101000203166002900480601f016020809104026020016040519081016040528092919081815260200182805460018160011615610100020316600290048015610da05780601f10610d7557610100808354040283529160200191610da0565b820191906000526020600020905b815481529060010190602001808311610d8357829003601f168201915b50505050509250818054600181600116156101000203166002900480601f016020809104026020016040519081016040528092919081815260200182805460018160011615610100020316600290048015610e3c5780601f10610e1157610100808354040283529160200191610e3c565b820191906000526020600020905b815481529060010190602001808311610e1f57829003601f168201915b50505050509150808054600181600116156101000203166002900480601f016020809104026020016040519081016040528092919081815260200182805460018160011615610100020316600290048015610ed85780601f10610ead57610100808354040283529160200191610ed8565b820191906000526020600020905b815481529060010190602001808311610ebb57829003601f168201915b5050505050905096509650965096505050509193509193565b6000600160008373ffffffffffffffffffffffffffffffffffffffff1673ffffffffffffffffffffffffffffffffffffffff16815260200190815260200160002060009054906101000a900460ff169050919050565b828054600181600116156101000203166002900490600052602060002090601f016020900481019282601f10610f8857805160ff1916838001178555610fb6565b82800160010185558215610fb6579182015b82811115610fb5578251825591602001919060010190610f9a565b5b509050610fc39190610fc7565b5090565b610fe991905b80821115610fe5576000816000905550600101610fcd565b5090565b9056fea165627a7a72305820c38c36fd80080b4c8da7aa19f78aef9676bee43663fd0d3ba62719c77c28b62a0029",
  "source": "pragma solidity 0.5.2;\n\ncontract IdentityRegistry {\n    struct Identity {\n        address ownerAddress;\n        string did;\n        string publicKey;\n        string name;\n    }\n\n    mapping(address => Identity) private identityDirectory;\n    mapping(address => bool) private allAddresses;\n\n    modifier _identityNotExists(address ownerAddress) {\n        require(!identityExists(ownerAddress), \"The identity already exist.\");\n        _;\n    }\n\n    modifier _identityExists(address ownerAddress) {\n        require(identityExists(ownerAddress), \"The identity does not exist.\");\n        _;\n    }\n\n    modifier _onlyOwner(address ownerAddress) {\n        require(msg.sender == ownerAddress);\n        _;\n    }\n\n    function identityExists(address ownerAddress) public view returns (bool) {\n        return allAddresses[ownerAddress];\n    }\n\n    function getIdentity(address ownerAddress) public view _onlyOwner(ownerAddress) _identityExists(ownerAddress)\n    returns (address _ownerAddress, string memory _did, string memory _publicKey, string memory _name) {\n        Identity storage _identity = identityDirectory[ownerAddress];\n\n        return (\n        _identity.ownerAddress,\n        _identity.did,\n        _identity.publicKey,\n        _identity.name\n        );\n    }\n\n    function createIdentity(address ownerAddress, string memory did, string memory publicKey, string memory name) public _onlyOwner(ownerAddress) _identityNotExists(ownerAddress)\n    returns (address _ownerAddress, string memory _did, string memory _publicKey, string memory _name) {\n        Identity storage _identity = identityDirectory[ownerAddress];\n\n        _identity.ownerAddress = ownerAddress;\n        _identity.did = did;\n        _identity.publicKey = publicKey;\n        _identity.name = name;\n\n        allAddresses[ownerAddress] = true;\n\n        emit IdentityCreated(msg.sender, ownerAddress, did, publicKey, name);\n\n        return (\n        _identity.ownerAddress,\n        _identity.did,\n        _identity.publicKey,\n        _identity.name\n        );\n    }\n\n    event IdentityCreated(\n        address indexed initiator,\n        address ownerAddress,\n        string did,\n        string publicKey,\n        string name\n    );\n}\n",
  "sourcePath": "/Users/jbjxu/Documents/0_ThoughtWorks/TWWallet/0_repo/quorum-contract/contracts/IdentityRegistry.sol",
  "compiler": {
    "name": "solc",
    "version": "0.5.2+commit.1df8f40c.Emscripten.clang"
  },
  "schemaVersion": "3.1.0",
  "updatedAt": "2020-04-20T07:44:18.786Z",
  "networkType": "ethereum",
  "devdoc": {
    "methods": {}
  },
  "userdoc": {
    "methods": {}
  }
}